{
  "_format": "hh-sol-artifact-1",
  "contractName": "Coffee",
  "sourceName": "contracts/Coffee.sol",
  "abi": [
    {
      "inputs": [],
      "stateMutability": "nonpayable",
      "type": "constructor"
    },
    {
      "anonymous": false,
      "inputs": [
        {
          "indexed": true,
          "internalType": "address",
          "name": "from",
          "type": "address"
        },
        {
          "indexed": false,
          "internalType": "uint256",
          "name": "timestamp",
          "type": "uint256"
        },
        {
          "indexed": false,
          "internalType": "string",
          "name": "name",
          "type": "string"
        },
        {
          "indexed": false,
          "internalType": "string",
          "name": "message",
          "type": "string"
        }
      ],
      "name": "NewMemo",
      "type": "event"
    },
    {
      "anonymous": false,
      "inputs": [
        {
          "indexed": false,
          "internalType": "uint256",
          "name": "amount",
          "type": "uint256"
        }
      ],
      "name": "NewWithdrawl",
      "type": "event"
    },
    {
      "inputs": [
        {
          "internalType": "string",
          "name": "_name",
          "type": "string"
        },
        {
          "internalType": "string",
          "name": "_message",
          "type": "string"
        }
      ],
      "name": "buyCoffee",
      "outputs": [],
      "stateMutability": "payable",
      "type": "function"
    },
    {
      "inputs": [],
      "name": "getMemos",
      "outputs": [
        {
          "components": [
            {
              "internalType": "address",
              "name": "from",
              "type": "address"
            },
            {
              "internalType": "uint256",
              "name": "timestamp",
              "type": "uint256"
            },
            {
              "internalType": "string",
              "name": "name",
              "type": "string"
            },
            {
              "internalType": "string",
              "name": "message",
              "type": "string"
            }
          ],
          "internalType": "struct Coffee.Memo[]",
          "name": "",
          "type": "tuple[]"
        }
      ],
      "stateMutability": "view",
      "type": "function"
    },
    {
      "inputs": [],
      "name": "isOwner",
      "outputs": [
        {
          "internalType": "bool",
          "name": "",
          "type": "bool"
        }
      ],
      "stateMutability": "view",
      "type": "function"
    },
    {
      "inputs": [],
      "name": "withdraw",
      "outputs": [],
      "stateMutability": "nonpayable",
      "type": "function"
    }
  ],
  "bytecode": "0x608060405234801561001057600080fd5b50336000806101000a81548173ffffffffffffffffffffffffffffffffffffffff021916908373ffffffffffffffffffffffffffffffffffffffff160217905550610f6f806100606000396000f3fe60806040526004361061003f5760003560e01c8063204206e1146100445780633ccfd60b14610060578063865c5172146100775780638f32d59b146100a2575b600080fd5b61005e60048036038101906100599190610738565b6100cd565b005b34801561006c57600080fd5b50610075610247565b005b34801561008357600080fd5b5061008c6103a5565b60405161009991906109b5565b60405180910390f35b3480156100ae57600080fd5b506100b7610588565b6040516100c491906109f2565b60405180910390f35b60003411610110576040517f08c379a000000000000000000000000000000000000000000000000000000000815260040161010790610a6a565b60405180910390fd5b600160405180608001604052803373ffffffffffffffffffffffffffffffffffffffff16815260200142815260200184815260200183815250908060018154018082558091505060019003906000526020600020906004020160009091909190915060008201518160000160006101000a81548173ffffffffffffffffffffffffffffffffffffffff021916908373ffffffffffffffffffffffffffffffffffffffff1602179055506020820151816001015560408201518160020190816101d89190610c96565b5060608201518160030190816101ee9190610c96565b5050503373ffffffffffffffffffffffffffffffffffffffff167fc56140e05f516509ae28110e0f72e17558a7561630dad2647c3ae87d986e365c42848460405161023b93929190610db0565b60405180910390a25050565b60008054906101000a900473ffffffffffffffffffffffffffffffffffffffff1673ffffffffffffffffffffffffffffffffffffffff163373ffffffffffffffffffffffffffffffffffffffff16146102d5576040517f08c379a00000000000000000000000000000000000000000000000000000000081526004016102cc90610e67565b60405180910390fd5b60008060009054906101000a900473ffffffffffffffffffffffffffffffffffffffff1673ffffffffffffffffffffffffffffffffffffffff164760405161031c90610eb8565b60006040518083038185875af1925050503d8060008114610359576040519150601f19603f3d011682016040523d82523d6000602084013e61035e565b606091505b50509050806103a2576040517f08c379a000000000000000000000000000000000000000000000000000000000815260040161039990610f19565b60405180910390fd5b50565b60606001805480602002602001604051908101604052809291908181526020016000905b8282101561057f57838290600052602060002090600402016040518060800160405290816000820160009054906101000a900473ffffffffffffffffffffffffffffffffffffffff1673ffffffffffffffffffffffffffffffffffffffff1673ffffffffffffffffffffffffffffffffffffffff1681526020016001820154815260200160028201805461045c90610ab9565b80601f016020809104026020016040519081016040528092919081815260200182805461048890610ab9565b80156104d55780601f106104aa576101008083540402835291602001916104d5565b820191906000526020600020905b8154815290600101906020018083116104b857829003601f168201915b505050505081526020016003820180546104ee90610ab9565b80601f016020809104026020016040519081016040528092919081815260200182805461051a90610ab9565b80156105675780601f1061053c57610100808354040283529160200191610567565b820191906000526020600020905b81548152906001019060200180831161054a57829003601f168201915b505050505081525050815260200190600101906103c9565b50505050905090565b60003373ffffffffffffffffffffffffffffffffffffffff1660008054906101000a900473ffffffffffffffffffffffffffffffffffffffff1673ffffffffffffffffffffffffffffffffffffffff1614905090565b6000604051905090565b600080fd5b600080fd5b600080fd5b600080fd5b6000601f19601f8301169050919050565b7f4e487b7100000000000000000000000000000000000000000000000000000000600052604160045260246000fd5b610645826105fc565b810181811067ffffffffffffffff821117156106645761066361060d565b5b80604052505050565b60006106776105de565b9050610683828261063c565b919050565b600067ffffffffffffffff8211156106a3576106a261060d565b5b6106ac826105fc565b9050602081019050919050565b82818337600083830152505050565b60006106db6106d684610688565b61066d565b9050828152602081018484840111156106f7576106f66105f7565b5b6107028482856106b9565b509392505050565b600082601f83011261071f5761071e6105f2565b5b813561072f8482602086016106c8565b91505092915050565b6000806040838503121561074f5761074e6105e8565b5b600083013567ffffffffffffffff81111561076d5761076c6105ed565b5b6107798582860161070a565b925050602083013567ffffffffffffffff81111561079a576107996105ed565b5b6107a68582860161070a565b9150509250929050565b600081519050919050565b600082825260208201905092915050565b6000819050602082019050919050565b600073ffffffffffffffffffffffffffffffffffffffff82169050919050565b6000610807826107dc565b9050919050565b610817816107fc565b82525050565b6000819050919050565b6108308161081d565b82525050565b600081519050919050565b600082825260208201905092915050565b60005b83811015610870578082015181840152602081019050610855565b60008484015250505050565b600061088782610836565b6108918185610841565b93506108a1818560208601610852565b6108aa816105fc565b840191505092915050565b60006080830160008301516108cd600086018261080e565b5060208301516108e06020860182610827565b50604083015184820360408601526108f8828261087c565b91505060608301518482036060860152610912828261087c565b9150508091505092915050565b600061092b83836108b5565b905092915050565b6000602082019050919050565b600061094b826107b0565b61095581856107bb565b935083602082028501610967856107cc565b8060005b858110156109a35784840389528151610984858261091f565b945061098f83610933565b925060208a0199505060018101905061096b565b50829750879550505050505092915050565b600060208201905081810360008301526109cf8184610940565b905092915050565b60008115159050919050565b6109ec816109d7565b82525050565b6000602082019050610a0760008301846109e3565b92915050565b600082825260208201905092915050565b7f63616e27742062757920636f6666656520666f72206672656521000000000000600082015250565b6000610a54601a83610a0d565b9150610a5f82610a1e565b602082019050919050565b60006020820190508181036000830152610a8381610a47565b9050919050565b7f4e487b7100000000000000000000000000000000000000000000000000000000600052602260045260246000fd5b60006002820490506001821680610ad157607f821691505b602082108103610ae457610ae3610a8a565b5b50919050565b60008190508160005260206000209050919050565b60006020601f8301049050919050565b600082821b905092915050565b600060088302610b4c7fffffffffffffffffffffffffffffffffffffffffffffffffffffffffffffffff82610b0f565b610b568683610b0f565b95508019841693508086168417925050509392505050565b6000819050919050565b6000610b93610b8e610b898461081d565b610b6e565b61081d565b9050919050565b6000819050919050565b610bad83610b78565b610bc1610bb982610b9a565b848454610b1c565b825550505050565b600090565b610bd6610bc9565b610be1818484610ba4565b505050565b5b81811015610c0557610bfa600082610bce565b600181019050610be7565b5050565b601f821115610c4a57610c1b81610aea565b610c2484610aff565b81016020851015610c33578190505b610c47610c3f85610aff565b830182610be6565b50505b505050565b600082821c905092915050565b6000610c6d60001984600802610c4f565b1980831691505092915050565b6000610c868383610c5c565b9150826002028217905092915050565b610c9f82610836565b67ffffffffffffffff811115610cb857610cb761060d565b5b610cc28254610ab9565b610ccd828285610c09565b600060209050601f831160018114610d005760008415610cee578287015190505b610cf88582610c7a565b865550610d60565b601f198416610d0e86610aea565b60005b82811015610d3657848901518255600182019150602085019450602081019050610d11565b86831015610d535784890151610d4f601f891682610c5c565b8355505b6001600288020188555050505b505050505050565b610d718161081d565b82525050565b6000610d8282610836565b610d8c8185610a0d565b9350610d9c818560208601610852565b610da5816105fc565b840191505092915050565b6000606082019050610dc56000830186610d68565b8181036020830152610dd78185610d77565b90508181036040830152610deb8184610d77565b9050949350505050565b7f6f6e6c7920636f6e7472616374206f776e65722063616e2063616c6c2074686960008201527f7300000000000000000000000000000000000000000000000000000000000000602082015250565b6000610e51602183610a0d565b9150610e5c82610df5565b604082019050919050565b60006020820190508181036000830152610e8081610e44565b9050919050565b600081905092915050565b50565b6000610ea2600083610e87565b9150610ead82610e92565b600082019050919050565b6000610ec382610e95565b9150819050919050565b7f5769746864726177206661696c65640000000000000000000000000000000000600082015250565b6000610f03600f83610a0d565b9150610f0e82610ecd565b602082019050919050565b60006020820190508181036000830152610f3281610ef6565b905091905056fea2646970667358221220ca1fd4004818f7d11ff01184474226e4fa22c246d933f66006b8a71001277d8d64736f6c63430008110033",
  "linkReferences": {},
  "deployedLinkReferences": {}
}